:100000000C9434000C9451000C9451000C94510049
:100010000C9451000C9451000C9451000C9451001C
:100020000C9451000C9451000C9451000C9451000C
:100030000C9451000C9451000C9451000C945100FC
:100040000C9451000C9451000C9451000C945100EC
:100050000C9451000C9451000C9451000C945100DC
:100060000C9451000C94510011241FBECFEFD4E02A
:10007000DEBFCDBF11E0A0E0B1E0E8E5FAE002C0EC
:1000800005900D92AE34B107D9F711E0AEE4B1E0BE
:1000900001C01D92A435B107E1F70E94BB000C948A
:1000A0002A050C9400008AEA8EBD0DB407FEFDCF30
:1000B00008958EBD0DB407FEFDCF0895229A2A9AA9
:1000C0008CB58B7F8CBD8FE58CBD8CB58D7F8CBD49
:1000D0008CB58E7F8CBD81E090E00BC000000000ED
:1000E00000000000000000002F5F2A35B9F70197DB
:1000F00011F020E0F3CF08958FEE84B98FEF87B928
:100100008EEC8AB91092C50087E68093C40088E11E
:100110008093C10082E08093C0008FE391E09093D0
:1001200051018093500108951F93182F8A3019F4BC
:100130008DE00E9494008091C00085FFFCCF109359
:10014000C60080E090E01F9108958091C00087FF75
:10015000FCCF8091C60008950BC020E00000000095
:1001600000000000000000002F5F2A35B9F701975A
:10017000009799F70895BF92CF92DF92EF92FF9286
:100180000F931F93DF93CF9300D000D000D0CDB753
:10019000DEB78FEE84B98FEF87B98EEC8AB91092F3
:1001A000C50087E68093C40088E18093C10082E0A7
:1001B0008093C0008FE391E09093510180935001B0
:1001C0000E945E0080E091E00E943F0280E49CE992
:1001D0000CC00000000000000000000000002F5FC5
:1001E0002A35B9F7019709F443C020E0F2CF2A98E5
:1001F000CEBC0DB407FEFDCFDEBC0DB407FEFDCFB7
:100200002A9A85E090E00BC000000000000000008A
:10021000000000002F5F2A35B9F7019711F020E0A8
:10022000F3CF2A980EBD0DB407FEFDCF1EBC0DB452
:1002300007FEFDCF1EB52A9A812F90E09F938F93E2
:10024000FF92EF920E94230288EE93E00F900F90AE
:100250000F900F900BC00000000000000000000095
:1002600000002F5F2A35B9F7019759F020E0F3CF4E
:100270004DE2C42E38E2D32E0DEA27E0E22E21E033
:10028000F22E183209F0B3CF2A9881E38EBD0DB457
:1002900007FEFDCF88E08EBD0DB407FEFDCF2A9A84
:1002A00085E090E00BC000000000000000000000AE
:1002B00000002F5F2A35B9F7019711F020E0F3CF46
:1002C0002A9881EB8EBD0DB407FEFDCF1EBC0DB488
:1002D00007FEFDCF8EB52A9A90E09F938F9385E11C
:1002E00091E09F938F930E9423022A9888E38EBD0A
:1002F0000F900F900F900F900DB407FEFDCF1EBC16
:100300000DB407FEFDCF2A9A85E090E00BC00000F7
:10031000000000000000000000002F5F2A35B9F740
:10032000019711F020E0F3CF2A9888EB8EBD0DB431
:1003300007FEFDCF1EBC0DB407FEFDCF8EB52A9A79
:1003400090E09F938F9384E291E09F938F930E941C
:10035000230281E391E09F938F930E9423022DB7A4
:100360003EB72A5F3F4F0FB6F8943EBF0FBE2DBF7A
:1003700092EFB92E6E010894C11CD11C87E0E82EC3
:10038000F12CEC0EFD1E0BE311E08AE090E00E94E0
:1003900038022A98BEBC0DB407FEFDCFF6011EBC84
:1003A0000DB407FEFDCF8EB58193EE15FF05B9F7AD
:1003B0002A9A898190E09F938F931F930F930E94B5
:1003C00023028A8190E09F938F931F930F930E9443
:1003D00023028B8190E09F938F931F930F930E9432
:1003E00023028C8190E09F938F931F930F930E9421
:1003F00023028D8190E09F938F931F930F930E9410
:1004000023028E8190E09F938F931F930F930E94FE
:10041000230280EA9FE02DB73EB7285E3F4F0FB61C
:10042000F8943EBF0FBE2DBF0CC0000000000000BE
:100430000000000000002F5F2A35B9F7019709F48A
:10044000A4CF20E0F2CFA0E0B0E0E9E2F2E00C942B
:100450000305FE01359661917191AF0180915001C4
:10046000909151010E9474022096E2E00C941F05C5
:1004700060915001709151010E94690408950F9399
:100480001F93CF93DF938C01E0915001F0915101C4
:10049000838181FF21C0C0E0D0E00DC0E091500118
:1004A000F091510120853185BF01F9010995892B12
:1004B00011F0CFEFDFEFF80181918F01882371F701
:1004C000E0915001F091510120853185BF018AE012
:1004D000F9010995892B11F0CFEFDFEFCE01DF9104
:1004E000CF911F910F910895ABE0B0E0EAE7F2E001
:1004F0000C94F3043C012B015A01FC011782168273
:10050000838181FD03C06FEF7FEFC8C19AE0892E20
:100510001E010894211C311CF3012381F20123FDEB
:10052000859123FF81912F01882309F4B4C185327D
:1005300039F423FD859123FF81912F01853229F420
:10054000B30190E00E946904E7CF982FDD24CC240A
:100550009924FFE1FD15D0F09B3269F09C3228F41C
:10056000903259F0933291F40EC09D3249F090339D
:1005700069F441E024C052E0D52A84E0D82A28C09A
:1005800098E0D92A25C0E0E1DE2A22C0D7FC29C0A4
:10059000892F80538A3070F4D6FE05C0989C902C29
:1005A0001124980E15C0C89CC02C1124C80EF0E26E
:1005B000DF2A0EC09E3229F4D6FC6DC140E4D42A55
:1005C00007C09C3619F450E8D52A02C0983649F481
:1005D000F20123FD959123FF91912F01992309F0B9
:1005E000B8CF892F8554833018F08052833038F487
:1005F00044E050E0A40EB51E5FE359830FC093366C
:1006000031F0933779F0933509F056C020C0F501E9
:100610008081898342E050E0A40EB51E710101E0A3
:1006200010E012C0F501E080F180D6FC03C06FEF4E
:100630007FEF02C0692D70E042E050E0A40EB51ECD
:10064000C7010E945E048C015FE7D52214C0F5014A
:10065000E080F180D6FC03C06FEF7FEF02C0692D10
:1006600070E042E050E0A40EB51EC7010E945304A2
:100670008C0150E8D52AD3FE07C01AC0B30180E22E
:1006800090E00E946904CA948C2D90E00817190725
:10069000A8F30EC0F701D7FC8591D7FE81917F01A9
:1006A000B30190E00E946904C110CA940150104047
:1006B0000115110579F7ECC0943611F0993671F5F2
:1006C000D7FE08C0F501E080F1800281138144E08B
:1006D00050E00AC0F501808191817C010027F7FC80
:1006E0000095102F42E050E0A40EB51E5FE6D52223
:1006F00017FF0AC010950095F094E094E11CF11CDE
:10070000011D111D80E8D82A2AE030E0A101C801AE
:10071000B7010E949504F82EF21840C0953729F4CD
:100720001D2D1F7E2AE030E01DC01D2D197F9F3634
:1007300061F0903720F4983509F0ADC00FC09037C4
:1007400039F0983709F0A7C004C028E030E00AC0AB
:10075000106114FD146020E130E004C014FD166047
:1007600020E132E017FF08C0F501608171818281CC
:10077000938144E050E008C0F50180819181BC0183
:1007800080E090E042E050E0A40EB51EA1010E947E
:100790009504F82EF2188FE7D82ED122D6FE0BC082
:1007A0005EEFD522F91438F4D4FE07C0D2FC05C0A0
:1007B0008FEED82202C01F2D01C0192DD4FE0DC00E
:1007C000FE01EF0DF11D8081803319F499EED922DD
:1007D00008C01F5FD2FE05C003C08D2D867809F0CA
:1007E0001F5F0D2DD3FC14C0D0FE0FC01C1510F0E0
:1007F0009F2C0BC09F2C9C0C911A1C2D06C0B30182
:1008000080E290E00E9469041F5F1C15C0F304C0E1
:100810001C1510F4C11A01C0CC2404FF10C0B30190
:1008200080E390E00E94690402FF1EC001FD03C046
:1008300088E790E002C088E590E0B3010CC0802F0B
:10084000867891F001FF02C08BE201C080E2D7FC04
:100850008DE2B30190E00E94690406C0B30180E319
:1008600090E00E9469049A94F914C0F3FA94F1019B
:10087000EF0DF11DB301808190E00E946904FF201B
:10088000A9F706C0B30180E290E00E946904CA940F
:10089000CC20C1F741CEF30166817781CB012B9645
:1008A000E2E10C940F05FC010590615070400110CD
:1008B000D8F7809590958E0F9F1F0895FC01615089
:1008C000704001900110D8F7809590958E0F9F1F72
:1008D00008950F931F93CF93DF938C01EB018B81CE
:1008E00081FF1BC082FF0DC02E813F818C819D81C5
:1008F0002817390764F4E881F9810193F983E883C3
:1009000006C0E885F985802F0995892B31F48E8101
:100910009F8101969F838E8302C00FEF1FEFC80156
:10092000DF91CF911F910F910895FA01AA272830E6
:1009300051F1203181F1E8946F936E7F6E5F7F4FAC
:100940008F4F9F4FAF4FB1E03ED0B4E03CD0670F28
:10095000781F891F9A1FA11D680F791F8A1F911D7B
:10096000A11D6A0F711D811D911DA11D20D009F4CB
:1009700068943F912AE0269F11243019305D31930D
:10098000DEF6CF010895462F4770405D4193B3E0F6
:100990000FD0C9F7F6CF462F4F70405D4A3318F09D
:1009A000495D31FD4052419302D0A9F7EACFB4E04E
:1009B000A6959795879577956795BA95C9F7009706
:1009C0006105710508959B01AC010A2E06945795A7
:1009D000479537952795BA95C9F7620F731F841FFE
:1009E000951FA01D08952F923F924F925F926F9294
:1009F0007F928F929F92AF92BF92CF92DF92EF92AF
:100A0000FF920F931F93CF93DF93CDB7DEB7CA1B2F
:100A1000DB0B0FB6F894DEBF0FBECDBF09942A885A
:100A2000398848885F846E847D848C849B84AA8402
:100A3000B984C884DF80EE80FD800C811B81AA818F
:100A4000B981CE0FD11D0FB6F894DEBF0FBECDBF5A
:080A5000ED010895F894FFCFB9
:100A58000A537461727400506F7765722069733A33
:100A68002025780A00466F726D61742069733A20F8
:100A780025780A004649464F2069733A2025780AA6
:100A880000646174612069733A20002578200000B1
:0E0A98000000020000000094000000000000BA
:00000001FF
